{
  "contractName": "Storage",
  "abi": [
    {
      "inputs": [],
      "stateMutability": "nonpayable",
      "type": "constructor"
    },
    {
      "inputs": [],
      "name": "a",
      "outputs": [
        {
          "internalType": "uint8",
          "name": "",
          "type": "uint8"
        }
      ],
      "stateMutability": "view",
      "type": "function",
      "constant": true
    },
    {
      "inputs": [
        {
          "internalType": "uint256",
          "name": "",
          "type": "uint256"
        }
      ],
      "name": "aa",
      "outputs": [
        {
          "internalType": "uint256",
          "name": "",
          "type": "uint256"
        }
      ],
      "stateMutability": "view",
      "type": "function",
      "constant": true
    },
    {
      "inputs": [],
      "name": "b",
      "outputs": [
        {
          "internalType": "uint16",
          "name": "",
          "type": "uint16"
        }
      ],
      "stateMutability": "view",
      "type": "function",
      "constant": true
    },
    {
      "inputs": [
        {
          "internalType": "address",
          "name": "",
          "type": "address"
        }
      ],
      "name": "bb",
      "outputs": [
        {
          "internalType": "uint256",
          "name": "",
          "type": "uint256"
        }
      ],
      "stateMutability": "view",
      "type": "function",
      "constant": true
    },
    {
      "inputs": [],
      "name": "c",
      "outputs": [
        {
          "internalType": "address",
          "name": "",
          "type": "address"
        }
      ],
      "stateMutability": "view",
      "type": "function",
      "constant": true
    },
    {
      "inputs": [
        {
          "internalType": "uint256",
          "name": "",
          "type": "uint256"
        }
      ],
      "name": "cc",
      "outputs": [
        {
          "internalType": "uint256",
          "name": "",
          "type": "uint256"
        }
      ],
      "stateMutability": "view",
      "type": "function",
      "constant": true
    },
    {
      "inputs": [],
      "name": "e",
      "outputs": [
        {
          "internalType": "uint64",
          "name": "",
          "type": "uint64"
        }
      ],
      "stateMutability": "view",
      "type": "function",
      "constant": true
    },
    {
      "inputs": [],
      "name": "f",
      "outputs": [
        {
          "internalType": "uint256",
          "name": "",
          "type": "uint256"
        }
      ],
      "stateMutability": "view",
      "type": "function",
      "constant": true
    },
    {
      "inputs": [],
      "name": "g",
      "outputs": [
        {
          "internalType": "uint8",
          "name": "",
          "type": "uint8"
        }
      ],
      "stateMutability": "view",
      "type": "function",
      "constant": true
    },
    {
      "inputs": [],
      "name": "h",
      "outputs": [
        {
          "internalType": "uint256",
          "name": "",
          "type": "uint256"
        }
      ],
      "stateMutability": "view",
      "type": "function",
      "constant": true
    }
  ],
  "bytecode": "0x60806040526007600360006101000a81548160ff021916908360ff160217905550600a600360016101000a81548161ffff021916908361ffff160217905550739c7968edb95324424257f8d8e7f2945bf0f78a9a6003806101000a81548173ffffffffffffffffffffffffffffffffffffffff021916908373ffffffffffffffffffffffffffffffffffffffff1602179055506001600360176101000a81548160ff021916908315150217905550600f600360186101000a81548167ffffffffffffffff021916908367ffffffffffffffff16021790555060c86004556028600560006101000a81548160ff021916908360ff16021790555061031560065534801561010a57600080fd5b506002600190806001815401808255809150506001900390600052602060002001600090919091909150556002600a908060018154018082558091505060019003906000526020600020016000909190919091505560026064908060018154018082558091505060019003906000526020600020016000909190919091505560046000806002815260200190815260200160002081905550600a6000806003815260200190815260200160002081905550606460016000739c7968edb95324424257f8d8e7f2945bf0f78a9a73ffffffffffffffffffffffffffffffffffffffff1673ffffffffffffffffffffffffffffffffffffffff16815260200190815260200160002081905550610507806102236000396000f3fe608060405234801561001057600080fd5b506004361061009e5760003560e01c8063c3da42b811610066578063c3da42b81461014b578063e1d9bbbd14610169578063e2179b8e14610199578063eb366c13146101b7578063ffae15ba146101e75761009e565b80630dbe671f146100a357806326121ff0146100c15780634df7e3d0146100df5780637323febe146100fd578063b8c9d3651461012d575b600080fd5b6100ab610205565b6040516100b891906102f9565b60405180910390f35b6100c9610218565b6040516100d6919061032d565b60405180910390f35b6100e761021e565b6040516100f49190610365565b60405180910390f35b610117600480360381019061011291906103b1565b610232565b604051610124919061032d565b60405180910390f35b61013561024a565b604051610142919061032d565b60405180910390f35b610153610250565b604051610160919061041f565b60405180910390f35b610183600480360381019061017e9190610466565b610274565b604051610190919061032d565b60405180910390f35b6101a161028c565b6040516101ae91906102f9565b60405180910390f35b6101d160048036038101906101cc91906103b1565b61029f565b6040516101de919061032d565b60405180910390f35b6101ef6102c3565b6040516101fc91906104b6565b60405180910390f35b600360009054906101000a900460ff1681565b60045481565b600360019054906101000a900461ffff1681565b60006020528060005260406000206000915090505481565b60065481565b60038054906101000a900473ffffffffffffffffffffffffffffffffffffffff1681565b60016020528060005260406000206000915090505481565b600560009054906101000a900460ff1681565b600281815481106102af57600080fd5b906000526020600020016000915090505481565b600360189054906101000a900467ffffffffffffffff1681565b600060ff82169050919050565b6102f3816102dd565b82525050565b600060208201905061030e60008301846102ea565b92915050565b6000819050919050565b61032781610314565b82525050565b6000602082019050610342600083018461031e565b92915050565b600061ffff82169050919050565b61035f81610348565b82525050565b600060208201905061037a6000830184610356565b92915050565b600080fd5b61038e81610314565b811461039957600080fd5b50565b6000813590506103ab81610385565b92915050565b6000602082840312156103c7576103c6610380565b5b60006103d58482850161039c565b91505092915050565b600073ffffffffffffffffffffffffffffffffffffffff82169050919050565b6000610409826103de565b9050919050565b610419816103fe565b82525050565b60006020820190506104346000830184610410565b92915050565b610443816103fe565b811461044e57600080fd5b50565b6000813590506104608161043a565b92915050565b60006020828403121561047c5761047b610380565b5b600061048a84828501610451565b91505092915050565b600067ffffffffffffffff82169050919050565b6104b081610493565b82525050565b60006020820190506104cb60008301846104a7565b9291505056fea264697066735822122090140bd94b4a9075e961bc5ea6b1a461c7ee682e3c8203a538f2d4023502f50b64736f6c634300080d0033",
  "immutableReferences": {},
  "source": "// SPDX-License-Identifier: MIT\r\npragma solidity >=0.4.22 <0.9.0;\r\n\r\ncontract Storage {\r\n    /**\r\n     * Memory Slot 1\r\n     *\r\n     * keccak256(key . slot)\r\n     */\r\n    mapping(uint256 => uint256) public aa;\r\n    /**\r\n     * Memory Slot 2\r\n     */\r\n    mapping(address => uint256) public bb;\r\n\r\n    /**\r\n     * Memory Slot 2\r\n     *\r\n     * keccak256(slot) + index of the item\r\n     */\r\n    uint256[] public cc; // slot 2\r\n\r\n    /**\r\n     * Memory Slot 3\r\n     */\r\n    uint8 public a = 7; // 1 byte\r\n    uint16 public b = 10; // 2 bytes\r\n    address public c = 0x9c7968EDB95324424257f8D8E7F2945bF0f78a9a; // 20 bytes\r\n    bool d = true; // 1 byte\r\n    uint64 public e = 15; // 8 bytes\r\n    //  32 bytes / slot, above values will be stored in array of memory slot 0\r\n    // 0x0f019c7968edb95324424257f8d8e7f2945bf0f78a9a000a07\r\n    // 0x:hex 0f:15 01:true 9c7968edb95324424257f8d8e7f2945bf0f78a9a:address 000a:10 07:7\r\n\r\n    /**\r\n     * Memory Slot 4\r\n     */\r\n    uint256 public f = 200; // 64 bytes\r\n    // 0xc8:200\r\n\r\n    /**\r\n     * Memory Slot 5\r\n     */\r\n    uint8 public g = 40; // 1 byte\r\n    // 0x28:40\r\n\r\n    /**\r\n     * Memory Slot 6\r\n     */\r\n    uint256 public h = 789; // 64 bytes\r\n\r\n    // 0x0315:789\r\n\r\n    constructor() {\r\n        // 0x0000000000000000000000000000000000000000000000000000000000000002 - slot 2\r\n        // index 0 decimal - 29102676481673041902632991033461445430619272659676223336789171408008386403022\r\n        // 405787fa12a823e0f2b7631cc41b3ba8828b3321ca811111fa75cd3aa3bb5ace - keccak256 hash4\r\n        // result - 0x01 = 1\r\n        cc.push(1);\r\n        // index 1 decimal - 29102676481673041902632991033461445430619272659676223336789171408008386403023\r\n        // 405787FA12A823E0F2B7631CC41B3BA8828B3321CA811111FA75CD3AA3BB5ACF - keccak256 hash\r\n        // result - 0x0a = 10\r\n        cc.push(10);\r\n        // index 2 decimal - 29102676481673041902632991033461445430619272659676223336789171408008386403024\r\n        // 405787FA12A823E0F2B7631CC41B3BA8828B3321CA811111FA75CD3AA3BB5AD0 - keccak256 hash\r\n        // result - 0x64 = 100\r\n        cc.push(100);\r\n\r\n        aa[2] = 4;\r\n        // 0x0000000000000000000000000000000000000000000000000000000000000002 - key '2'\r\n        // 0000000000000000000000000000000000000000000000000000000000000000 - slot 1\r\n        // keccak256 hex decode - abbb5caa7dda850e60932de0934eb1f9d0f59695050f761dc64e443e5030a569\r\n        // results in 0x04 = value 4\r\n\r\n        aa[3] = 10;\r\n        // 0x0000000000000000000000000000000000000000000000000000000000000003 - key '3'\r\n        // 0000000000000000000000000000000000000000000000000000000000000000 - slot 1\r\n        // keccak256 hex decode - 7dfe757ecd65cbd7922a9c0161e935dd7fdbcc0e999689c7d31633896b1fc60b\r\n        // results in 0x0a = value 10\r\n\r\n        bb[0x9c7968EDB95324424257f8D8E7F2945bF0f78a9a] = 100;\r\n        // 0x0000000000000000000000009c7968EDB95324424257f8D8E7F2945bF0f78a9a - key '3'\r\n        // 0000000000000000000000000000000000000000000000000000000000000001 - slot 2\r\n        // keccak256 hex decode - 7dfe757ecd65cbd7922a9c0161e935dd7fdbcc0e999689c7d31633896b1fc60b\r\n        // results in 0x64 = value 100\r\n    }\r\n}\r\n",
  "sourcePath": "C:\\Users\\praja\\Desktop\\blockchain\\faucet\\contracts\\Storage.sol",
  "compiler": {
    "name": "solc",
    "version": "0.8.13+commit.abaa5c0e.Emscripten.clang"
  },
  "schemaVersion": "3.4.7",
  "updatedAt": "2022-05-10T06:37:25.377Z",
  "networkType": "ethereum",
  "devdoc": {
    "kind": "dev",
    "methods": {},
    "version": 1
  },
  "userdoc": {
    "kind": "user",
    "methods": {
      "a()": {
        "notice": "Memory Slot 3"
      },
      "aa(uint256)": {
        "notice": "Memory Slot 1 keccak256(key . slot)"
      },
      "bb(address)": {
        "notice": "Memory Slot 2"
      },
      "cc(uint256)": {
        "notice": "Memory Slot 2 keccak256(slot) + index of the item"
      },
      "f()": {
        "notice": "Memory Slot 4"
      },
      "g()": {
        "notice": "Memory Slot 5"
      },
      "h()": {
        "notice": "Memory Slot 6"
      }
    },
    "version": 1
  }
}